{
  "abi": [
    {
      "inputs": [
        {
          "internalType": "address",
          "name": "",
          "type": "address"
        }
      ],
      "name": "builders",
      "outputs": [
        {
          "internalType": "address",
          "name": "_address",
          "type": "address"
        },
        {
          "internalType": "bool",
          "name": "parity",
          "type": "bool"
        },
        {
          "internalType": "bytes32",
          "name": "publicKey",
          "type": "bytes32"
        }
      ],
      "stateMutability": "view",
      "type": "function"
    },
    {
      "inputs": [
        {
          "internalType": "bool",
          "name": "parity",
          "type": "bool"
        },
        {
          "internalType": "bytes32",
          "name": "publicKey",
          "type": "bytes32"
        }
      ],
      "name": "setBuilderPublickey",
      "outputs": [],
      "stateMutability": "nonpayable",
      "type": "function"
    }
  ],
  "bytecode": "608060405234801561001057600080fd5b506101da806100206000396000f3fe608060405234801561001057600080fd5b50600436106100365760003560e01c8063144ddefc1461003b5780635ae12c73146100a1575b600080fd5b610078610049366004610143565b600060208190529081526040902080546001909101546001600160a01b03821691600160a01b900460ff169083565b604080516001600160a01b03909416845291151560208401529082015260600160405180910390f35b6100b46100af366004610173565b6100b6565b005b336000818152602081905260409020546001600160a01b0316146101125760405162461bcd60e51b815260206004820152600f60248201526e109d5a5b19195c881b9bdd081cd95d608a1b604482015260640160405180910390fd5b3360009081526020819052604090208054921515600160a01b0260ff60a01b19909316929092178255600190910155565b60006020828403121561015557600080fd5b81356001600160a01b038116811461016c57600080fd5b9392505050565b6000806040838503121561018657600080fd5b8235801515811461019657600080fd5b94602093909301359350505056fea2646970667358221220ba0d17b67827b67eef021c029375211c1b874f9a8e2e0f37574d00f98311427a64736f6c634300080a0033",
  "bytecodeSha1": "42ee6c0d0a1e30da286ba11abc69b47ea7581b42",
  "compiler": {
    "evm_version": "istanbul",
    "optimizer": {
      "enabled": true,
      "runs": 200
    },
    "version": "0.8.10+commit.fc410830"
  },
  "contractName": "Builders",
  "language": "Solidity",
  "natspec": {
    "details": "Reference builder in the project",
    "kind": "dev",
    "methods": {
      "setBuilderPublickey(bool,bytes32)": {
        "notice": "Builder can update his public key.",
        "params": {
          "parity": "based on header value (0x02/0x03 - false/true)",
          "publicKey": "compressed public key value"
        }
      }
    },
    "version": 1
  },
  "opcodes": "PUSH1 0x80 PUSH1 0x40 MSTORE CALLVALUE DUP1 ISZERO PUSH2 0x10 JUMPI PUSH1 0x0 DUP1 REVERT JUMPDEST POP PUSH1 0x4 CALLDATASIZE LT PUSH2 0x36 JUMPI PUSH1 0x0 CALLDATALOAD PUSH1 0xE0 SHR DUP1 PUSH4 0x144DDEFC EQ PUSH2 0x3B JUMPI DUP1 PUSH4 0x5AE12C73 EQ PUSH2 0xA1 JUMPI JUMPDEST PUSH1 0x0 DUP1 REVERT JUMPDEST PUSH2 0x78 PUSH2 0x49 CALLDATASIZE PUSH1 0x4 PUSH2 0x143 JUMP JUMPDEST PUSH1 0x0 PUSH1 0x20 DUP2 SWAP1 MSTORE SWAP1 DUP2 MSTORE PUSH1 0x40 SWAP1 KECCAK256 DUP1 SLOAD PUSH1 0x1 SWAP1 SWAP2 ADD SLOAD PUSH1 0x1 PUSH1 0x1 PUSH1 0xA0 SHL SUB DUP3 AND SWAP2 PUSH1 0x1 PUSH1 0xA0 SHL SWAP1 DIV PUSH1 0xFF AND SWAP1 DUP4 JUMP JUMPDEST PUSH1 0x40 DUP1 MLOAD PUSH1 0x1 PUSH1 0x1 PUSH1 0xA0 SHL SUB SWAP1 SWAP5 AND DUP5 MSTORE SWAP2 ISZERO ISZERO PUSH1 0x20 DUP5 ADD MSTORE SWAP1 DUP3 ADD MSTORE PUSH1 0x60 ADD PUSH1 0x40 MLOAD DUP1 SWAP2 SUB SWAP1 RETURN JUMPDEST PUSH2 0xB4 PUSH2 0xAF CALLDATASIZE PUSH1 0x4 PUSH2 0x173 JUMP JUMPDEST PUSH2 0xB6 JUMP JUMPDEST STOP JUMPDEST CALLER PUSH1 0x0 DUP2 DUP2 MSTORE PUSH1 0x20 DUP2 SWAP1 MSTORE PUSH1 0x40 SWAP1 KECCAK256 SLOAD PUSH1 0x1 PUSH1 0x1 PUSH1 0xA0 SHL SUB AND EQ PUSH2 0x112 JUMPI PUSH1 0x40 MLOAD PUSH3 0x461BCD PUSH1 0xE5 SHL DUP2 MSTORE PUSH1 0x20 PUSH1 0x4 DUP3 ADD MSTORE PUSH1 0xF PUSH1 0x24 DUP3 ADD MSTORE PUSH15 0x109D5A5B19195C881B9BDD081CD95D PUSH1 0x8A SHL PUSH1 0x44 DUP3 ADD MSTORE PUSH1 0x64 ADD PUSH1 0x40 MLOAD DUP1 SWAP2 SUB SWAP1 REVERT JUMPDEST CALLER PUSH1 0x0 SWAP1 DUP2 MSTORE PUSH1 0x20 DUP2 SWAP1 MSTORE PUSH1 0x40 SWAP1 KECCAK256 DUP1 SLOAD SWAP3 ISZERO ISZERO PUSH1 0x1 PUSH1 0xA0 SHL MUL PUSH1 0xFF PUSH1 0xA0 SHL NOT SWAP1 SWAP4 AND SWAP3 SWAP1 SWAP3 OR DUP3 SSTORE PUSH1 0x1 SWAP1 SWAP2 ADD SSTORE JUMP JUMPDEST PUSH1 0x0 PUSH1 0x20 DUP3 DUP5 SUB SLT ISZERO PUSH2 0x155 JUMPI PUSH1 0x0 DUP1 REVERT JUMPDEST DUP2 CALLDATALOAD PUSH1 0x1 PUSH1 0x1 PUSH1 0xA0 SHL SUB DUP2 AND DUP2 EQ PUSH2 0x16C JUMPI PUSH1 0x0 DUP1 REVERT JUMPDEST SWAP4 SWAP3 POP POP POP JUMP JUMPDEST PUSH1 0x0 DUP1 PUSH1 0x40 DUP4 DUP6 SUB SLT ISZERO PUSH2 0x186 JUMPI PUSH1 0x0 DUP1 REVERT JUMPDEST DUP3 CALLDATALOAD DUP1 ISZERO ISZERO DUP2 EQ PUSH2 0x196 JUMPI PUSH1 0x0 DUP1 REVERT JUMPDEST SWAP5 PUSH1 0x20 SWAP4 SWAP1 SWAP4 ADD CALLDATALOAD SWAP4 POP POP POP JUMP INVALID LOG2 PUSH5 0x6970667358 0x22 SLT KECCAK256 0xBA 0xD OR 0xB6 PUSH25 0x27B67EEF021C029375211C1B874F9A8E2E0F37574D00F98311 TIMESTAMP PUSH27 0x64736F6C634300080A003300000000000000000000000000000000 ",
  "sha1": "6463ab570bb0ed5a589644c3bae15387233904b0",
  "source": "// SPDX-License-Identifier: GPL3\npragma solidity ^0.8.0;\n\n/**\n * @dev Reference builder in the project\n */\ncontract Builders {\n    // Plan designer entity (builder)\n    struct Builder {\n        address _address;\n        bool parity;\n        bytes32 publicKey;\n    }\n\n    mapping(address => Builder) public builders;\n\n    modifier onlyBuilder {\n        require(\n            builders[msg.sender]._address != address(0),\n            \"Only builders are allowed to execute this.\"\n        );\n        _;\n    }\n\n    /**\n     * @notice Builder can update his public key.\n     * @param parity based on header value (0x02/0x03 - false/true)\n     * @param publicKey compressed public key value\n     */\n    function setBuilderPublickey(bool parity, bytes32 publicKey) public {\n        require(builders[msg.sender]._address == msg.sender, \"Builder not set\");\n        builders[msg.sender].parity = parity;\n        builders[msg.sender].publicKey = publicKey;\n    }\n\n    // TODO - add builder function ?\n}\n",
  "sourcePath": "contracts/project/Builders.sol",
  "type": "contract"
}