{
  "abi": [
    {
      "inputs": [],
      "name": "abortPlan",
      "outputs": [],
      "stateMutability": "nonpayable",
      "type": "function"
    },
    {
      "inputs": [
        {
          "internalType": "bool",
          "name": "parity",
          "type": "bool"
        },
        {
          "internalType": "bytes32",
          "name": "secret0",
          "type": "bytes32"
        },
        {
          "internalType": "bytes32",
          "name": "secret1",
          "type": "bytes32"
        },
        {
          "internalType": "bytes32",
          "name": "secret2",
          "type": "bytes32"
        }
      ],
      "name": "acceptNode",
      "outputs": [],
      "stateMutability": "nonpayable",
      "type": "function"
    },
    {
      "inputs": [],
      "name": "activeNodes",
      "outputs": [
        {
          "internalType": "uint32",
          "name": "",
          "type": "uint32"
        }
      ],
      "stateMutability": "view",
      "type": "function"
    },
    {
      "inputs": [
        {
          "internalType": "address",
          "name": "",
          "type": "address"
        }
      ],
      "name": "builders",
      "outputs": [
        {
          "internalType": "address",
          "name": "_address",
          "type": "address"
        },
        {
          "internalType": "bool",
          "name": "parity",
          "type": "bool"
        },
        {
          "internalType": "bytes32",
          "name": "publicKey",
          "type": "bytes32"
        }
      ],
      "stateMutability": "view",
      "type": "function"
    },
    {
      "inputs": [
        {
          "internalType": "bool",
          "name": "status",
          "type": "bool"
        }
      ],
      "name": "changeNodeStatus",
      "outputs": [],
      "stateMutability": "nonpayable",
      "type": "function"
    },
    {
      "inputs": [],
      "name": "currentRound",
      "outputs": [
        {
          "internalType": "uint32",
          "name": "",
          "type": "uint32"
        }
      ],
      "stateMutability": "view",
      "type": "function"
    },
    {
      "inputs": [],
      "name": "declineNode",
      "outputs": [],
      "stateMutability": "nonpayable",
      "type": "function"
    },
    {
      "inputs": [
        {
          "internalType": "bool",
          "name": "parity",
          "type": "bool"
        },
        {
          "internalType": "bytes32",
          "name": "secret0",
          "type": "bytes32"
        },
        {
          "internalType": "bytes32",
          "name": "secret1",
          "type": "bytes32"
        },
        {
          "internalType": "bytes32",
          "name": "secret2",
          "type": "bytes32"
        },
        {
          "internalType": "string",
          "name": "modelCID",
          "type": "string"
        }
      ],
      "name": "finishPlan",
      "outputs": [],
      "stateMutability": "nonpayable",
      "type": "function"
    },
    {
      "inputs": [],
      "name": "getNodeRequestsLength",
      "outputs": [
        {
          "internalType": "uint256",
          "name": "",
          "type": "uint256"
        }
      ],
      "stateMutability": "view",
      "type": "function"
    },
    {
      "inputs": [],
      "name": "getNodesLength",
      "outputs": [
        {
          "internalType": "uint256",
          "name": "",
          "type": "uint256"
        }
      ],
      "stateMutability": "view",
      "type": "function"
    },
    {
      "inputs": [
        {
          "internalType": "uint256",
          "name": "roundIdx",
          "type": "uint256"
        },
        {
          "internalType": "address",
          "name": "nodeAddress",
          "type": "address"
        }
      ],
      "name": "getRoundModel",
      "outputs": [
        {
          "internalType": "string",
          "name": "",
          "type": "string"
        }
      ],
      "stateMutability": "view",
      "type": "function"
    },
    {
      "inputs": [],
      "name": "isPlanRunning",
      "outputs": [
        {
          "internalType": "bool",
          "name": "",
          "type": "bool"
        }
      ],
      "stateMutability": "view",
      "type": "function"
    },
    {
      "inputs": [],
      "name": "keyTurn",
      "outputs": [
        {
          "internalType": "uint32",
          "name": "",
          "type": "uint32"
        }
      ],
      "stateMutability": "view",
      "type": "function"
    },
    {
      "inputs": [
        {
          "internalType": "uint256",
          "name": "",
          "type": "uint256"
        }
      ],
      "name": "nodeRequests",
      "outputs": [
        {
          "internalType": "address",
          "name": "_address",
          "type": "address"
        },
        {
          "internalType": "bool",
          "name": "parity",
          "type": "bool"
        },
        {
          "internalType": "bytes32",
          "name": "publicKey",
          "type": "bytes32"
        }
      ],
      "stateMutability": "view",
      "type": "function"
    },
    {
      "inputs": [
        {
          "internalType": "address",
          "name": "",
          "type": "address"
        }
      ],
      "name": "nodeState",
      "outputs": [
        {
          "internalType": "uint256",
          "name": "",
          "type": "uint256"
        }
      ],
      "stateMutability": "view",
      "type": "function"
    },
    {
      "inputs": [
        {
          "internalType": "uint256",
          "name": "",
          "type": "uint256"
        }
      ],
      "name": "nodesArray",
      "outputs": [
        {
          "internalType": "address",
          "name": "_address",
          "type": "address"
        },
        {
          "internalType": "bool",
          "name": "activated",
          "type": "bool"
        },
        {
          "internalType": "bool",
          "name": "parity",
          "type": "bool"
        },
        {
          "internalType": "bytes32",
          "name": "secret0",
          "type": "bytes32"
        },
        {
          "internalType": "bytes32",
          "name": "secret1",
          "type": "bytes32"
        },
        {
          "internalType": "bytes32",
          "name": "secret2",
          "type": "bytes32"
        },
        {
          "internalType": "uint256",
          "name": "entryKeyTurn",
          "type": "uint256"
        }
      ],
      "stateMutability": "view",
      "type": "function"
    },
    {
      "inputs": [],
      "name": "numPlans",
      "outputs": [
        {
          "internalType": "uint32",
          "name": "",
          "type": "uint32"
        }
      ],
      "stateMutability": "view",
      "type": "function"
    },
    {
      "inputs": [
        {
          "internalType": "uint256",
          "name": "",
          "type": "uint256"
        }
      ],
      "name": "plans",
      "outputs": [
        {
          "internalType": "address",
          "name": "creator",
          "type": "address"
        },
        {
          "internalType": "address",
          "name": "finalNode",
          "type": "address"
        },
        {
          "internalType": "uint32",
          "name": "randomSeed",
          "type": "uint32"
        },
        {
          "internalType": "string",
          "name": "baseModelCID",
          "type": "string"
        },
        {
          "internalType": "string",
          "name": "finalModelCID",
          "type": "string"
        },
        {
          "internalType": "bool",
          "name": "parity",
          "type": "bool"
        },
        {
          "internalType": "bytes32",
          "name": "secret0",
          "type": "bytes32"
        },
        {
          "internalType": "bytes32",
          "name": "secret1",
          "type": "bytes32"
        },
        {
          "internalType": "bytes32",
          "name": "secret2",
          "type": "bytes32"
        },
        {
          "internalType": "uint32",
          "name": "numRounds",
          "type": "uint32"
        },
        {
          "internalType": "uint256",
          "name": "numNodes",
          "type": "uint256"
        },
        {
          "internalType": "uint256",
          "name": "totalReward",
          "type": "uint256"
        },
        {
          "internalType": "uint256",
          "name": "nodeReward",
          "type": "uint256"
        },
        {
          "internalType": "uint256",
          "name": "keyTurn",
          "type": "uint256"
        }
      ],
      "stateMutability": "view",
      "type": "function"
    },
    {
      "inputs": [
        {
          "internalType": "bool",
          "name": "parity",
          "type": "bool"
        },
        {
          "internalType": "bytes32",
          "name": "publicKey",
          "type": "bytes32"
        }
      ],
      "name": "requestJoinNode",
      "outputs": [],
      "stateMutability": "nonpayable",
      "type": "function"
    },
    {
      "inputs": [
        {
          "internalType": "bool",
          "name": "parity",
          "type": "bool"
        },
        {
          "internalType": "bytes32",
          "name": "publicKey",
          "type": "bytes32"
        }
      ],
      "name": "setBuilderPublickey",
      "outputs": [],
      "stateMutability": "nonpayable",
      "type": "function"
    }
  ],
  "bytecode": "6080604052600380546001600160401b0319169055600680546001600160481b03191690556007805534801561003457600080fd5b5061154c806100446000396000f3fe608060405234801561001057600080fd5b506004361061012c5760003560e01c80638518a047116100ad578063b777a89311610071578063b777a893146102d6578063ba7925cb146102de578063c4e10a14146102f6578063da0986aa1461034e578063f1b7a1291461037357600080fd5b80638518a0471461024d5780638a19c8bc1461026d578063a0572b2a14610286578063b162061614610299578063b5967269146102c657600080fd5b806338b15a03116100f457806338b15a03146101f75780634a653a4d1461020c5780635ae12c731461021f5780636f2690a51461023257806372ab489f1461024557600080fd5b806307f196511461013157806313029e031461015b578063144ddefc1461016d5780631821aa62146101cf57806331888d88146101d7575b600080fd5b6003546101419063ffffffff1681565b60405163ffffffff90911681526020015b60405180910390f35b6004545b604051908152602001610152565b6101aa61017b3660046110dc565b600060208190529081526040902080546001909101546001600160a01b03821691600160a01b900460ff169083565b604080516001600160a01b039094168452911515602084015290820152606001610152565b60025461015f565b6101ea6101e53660046110fe565b610386565b6040516101529190611177565b61020a61020536600461119a565b6104c9565b005b61020a61021a3660046111c4565b6105e1565b61020a61022d36600461119a565b610880565b6101aa6102403660046111fd565b610909565b61020a61094c565b61015f61025b3660046110dc565b60016020526000908152604090205481565b6006546101419065010000000000900463ffffffff1681565b61020a610294366004611216565b610a54565b6102ac6102a73660046111fd565b610bf5565b6040516101529e9d9c9b9a99989796959493929190611231565b6006546101419063ffffffff1681565b61020a610d91565b60035461014190640100000000900463ffffffff1681565b6103096103043660046111fd565b610e3e565b604080516001600160a01b0390981688529515156020880152931515948601949094526060850191909152608084015260a083019190915260c082015260e001610152565b60065461036390640100000000900460ff1681565b6040519015158152602001610152565b61020a6103813660046112f7565b610e9b565b60065460609063ffffffff166103e35760405162461bcd60e51b815260206004820152601960248201527f4e6f20747261696e696e6720706c616e7320637265617465640000000000000060448201526064015b60405180910390fd5b6006546005906000906103fe9060019063ffffffff166113ec565b63ffffffff16815260208082019290925260409081016000908120868252600d0183528181206001600160a01b03861682526002019092529020805461044390611411565b80601f016020809104026020016040519081016040528092919081815260200182805461046f90611411565b80156104bc5780601f10610491576101008083540402835291602001916104bc565b820191906000526020600020905b81548152906001019060200180831161049f57829003601f168201915b5050505050905092915050565b33600090815260016020526040902054156105265760405162461bcd60e51b815260206004820152601d60248201527f4164647265737320616c7265616479206d61646520726571756573742e00000060448201526064016103da565b3360008181526001602081815260408084208390558051606081018252948552951515908401908152948301938452600480549182018155909152905160029091027f8a35acfbc15ff81a39ae7d344fd709f28e8600b4aa8c65c6b64bfe7fe36bd19b8101805494511515600160a01b026001600160a81b03199095166001600160a01b039390931692909217939093179055517f8a35acfbc15ff81a39ae7d344fd709f28e8600b4aa8c65c6b64bfe7fe36bd19c90910155565b33600090815260016020526040902054600311156106115760405162461bcd60e51b81526004016103da9061144c565b6004546106595760405162461bcd60e51b81526020600482015260166024820152752737903932b8bab2b9ba103a3790383937b1b2b9b99760511b60448201526064016103da565b600254610667906003611493565b6004805460019160009161067c9084906114ab565b8154811061068c5761068c6114c2565b600091825260208083206002909202909101546001600160a01b0316835282019290925260400190205560038054600191906004906106db90849063ffffffff640100000000909104166114d8565b92506101000a81548163ffffffff021916908363ffffffff16021790555060026040518060e001604052806004600160048054905061071a91906114ab565b8154811061072a5761072a6114c2565b60009182526020808320600292830201546001600160a01b03908116855260018583018190528b151560408088019190915260608088018d905260808089018d905260a0808a018d90526003805463ffffffff640100000000909104811660c09c8d01528d548088018f559d8b52888b208d516005909f02018054998e0151968e01511515600160a81b0260ff60a81b19971515600160a01b026001600160a81b0319909b169f9099169e909e179890981794909416959095178b55908901518a84015588015194890194909455908601518784015594909301516004959095019490945583549293929091610822918591166114d8565b92506101000a81548163ffffffff021916908363ffffffff160217905550600480548061085157610851611500565b60008281526020812060026000199093019283020180546001600160a81b031916815560010155905550505050565b336000818152602081905260409020546001600160a01b0316146108d85760405162461bcd60e51b815260206004820152600f60248201526e109d5a5b19195c881b9bdd081cd95d608a1b60448201526064016103da565b3360009081526020819052604090208054921515600160a01b0260ff60a01b19909316929092178255600190910155565b6004818154811061091957600080fd5b6000918252602090912060029091020180546001909101546001600160a01b0382169250600160a01b90910460ff169083565b336000908152600160205260409020546003111561097c5760405162461bcd60e51b81526004016103da9061144c565b6004546109c45760405162461bcd60e51b81526020600482015260166024820152752737903932b8bab2b9ba103a3790383937b1b2b9b99760511b60448201526064016103da565b600260016000600460016004805490506109de91906114ab565b815481106109ee576109ee6114c2565b600091825260208083206002909202909101546001600160a01b031683528201929092526040019020556004805480610a2957610a29611500565b60008281526020812060026000199093019283020180546001600160a81b0319168155600101559055565b3360009081526001602052604090205460031115610a845760405162461bcd60e51b81526004016103da9061144c565b600654640100000000900460ff1615610af45760405162461bcd60e51b815260206004820152602c60248201527f4e6f64652063616e2774206368616e676520737461747573207768696c65207060448201526b3630b710393ab73734b7339760a11b60648201526084016103da565b3360009081526001602052604090205481151590600290610b17906003906114ab565b81548110610b2757610b276114c2565b6000918252602090912060059091020154600160a01b900460ff16151514610b975780610b6857600354610b639060019063ffffffff166113ec565b610b7c565b600354610b7c9063ffffffff1660016114d8565b6003805463ffffffff191663ffffffff929092169190911790555b336000908152600160205260409020548190600290610bb8906003906114ab565b81548110610bc857610bc86114c2565b600091825260209091206005909102018054911515600160a01b0260ff60a01b1990921691909117905550565b6005602052600090815260409020805460018201546002830180546001600160a01b039384169493831693600160a01b90930463ffffffff16929190610c3a90611411565b80601f0160208091040260200160405190810160405280929190818152602001828054610c6690611411565b8015610cb35780601f10610c8857610100808354040283529160200191610cb3565b820191906000526020600020905b815481529060010190602001808311610c9657829003601f168201915b505050505090806003018054610cc890611411565b80601f0160208091040260200160405190810160405280929190818152602001828054610cf490611411565b8015610d415780601f10610d1657610100808354040283529160200191610d41565b820191906000526020600020905b815481529060010190602001808311610d2457829003601f168201915b505050600484015460058501546006860154600787015460088801546009890154600a8a0154600b8b0154600c909b0154999a60ff90971699959850939650919463ffffffff909116939192918e565b60065463ffffffff1615801590610de257506006543390600590600090610dc09060019063ffffffff166113ec565b63ffffffff1681526020810191909152604001600020546001600160a01b0316145b610e2e5760405162461bcd60e51b815260206004820152601f60248201527f4f6e6c792063726561746f722063616e2061626f72742074686520706c616e0060448201526064016103da565b6006805464ff0000000019169055565b60028181548110610e4e57600080fd5b6000918252602090912060059091020180546001820154600283015460038401546004909401546001600160a01b038416955060ff600160a01b8504811695600160a81b90950416939087565b3360009081526001602052604090205460031115610ecb5760405162461bcd60e51b81526004016103da9061144c565b6006546000906005908290610ee89060019063ffffffff166113ec565b63ffffffff168152602081019190915260400160002060018101549091506001600160a01b03163314610f6c5760405162461bcd60e51b815260206004820152602660248201527f4f6e6c79207072652d73656c6563746564206e6f64652063616e2066696e69736044820152653410383630b760d11b60648201526084016103da565b600881015460065463ffffffff918216650100000000009091049091161015610fd75760405162461bcd60e51b815260206004820152601c60248201527f416c6c20726f756e6473206d75737420626520636f6d706c657465640000000060448201526064016103da565b8151610fec9060038301906020850190611027565b5060048101805460ff191696151596909617909555506005840192909255600680840191909155600790920155805464ff0000000019169055565b82805461103390611411565b90600052602060002090601f016020900481019282611055576000855561109b565b82601f1061106e57805160ff191683800117855561109b565b8280016001018555821561109b579182015b8281111561109b578251825591602001919060010190611080565b506110a79291506110ab565b5090565b5b808211156110a757600081556001016110ac565b80356001600160a01b03811681146110d757600080fd5b919050565b6000602082840312156110ee57600080fd5b6110f7826110c0565b9392505050565b6000806040838503121561111157600080fd5b82359150611121602084016110c0565b90509250929050565b6000815180845260005b8181101561115057602081850181015186830182015201611134565b81811115611162576000602083870101525b50601f01601f19169290920160200192915050565b6020815260006110f7602083018461112a565b803580151581146110d757600080fd5b600080604083850312156111ad57600080fd5b6111b68361118a565b946020939093013593505050565b600080600080608085870312156111da57600080fd5b6111e38561118a565b966020860135965060408601359560600135945092505050565b60006020828403121561120f57600080fd5b5035919050565b60006020828403121561122857600080fd5b6110f78261118a565b6001600160a01b038f811682528e16602082015263ffffffff8d1660408201526101c0606082015260006112696101c083018e61112a565b828103608084015261127b818e61112a565b91505061128c60a083018c15159052565b8960c08301528860e0830152876101008301526112b261012083018863ffffffff169052565b856101408301528461016083015283610180830152826101a08301529f9e505050505050505050505050505050565b634e487b7160e01b600052604160045260246000fd5b600080600080600060a0868803121561130f57600080fd5b6113188661118a565b9450602086013593506040860135925060608601359150608086013567ffffffffffffffff8082111561134a57600080fd5b818801915088601f83011261135e57600080fd5b813581811115611370576113706112e1565b604051601f8201601f19908116603f01168101908382118183101715611398576113986112e1565b816040528281528b60208487010111156113b157600080fd5b8260208601602083013760006020848301015280955050505050509295509295909350565b634e487b7160e01b600052601160045260246000fd5b600063ffffffff83811690831681811015611409576114096113d6565b039392505050565b600181811c9082168061142557607f821691505b6020821081141561144657634e487b7160e01b600052602260045260246000fd5b50919050565b60208082526027908201527f4f6e6c79206e6f6465732061726520616c6c6f77656420746f2065786563757460408201526632903a3434b99760c91b606082015260800190565b600082198211156114a6576114a66113d6565b500190565b6000828210156114bd576114bd6113d6565b500390565b634e487b7160e01b600052603260045260246000fd5b600063ffffffff8083168185168083038211156114f7576114f76113d6565b01949350505050565b634e487b7160e01b600052603160045260246000fdfea2646970667358221220c3efdf530fcccde8cbac579bda45397a5ac6c2971d153ea46a76d8047b59881964736f6c634300080a0033",
  "bytecodeSha1": "ee54cee63f488d3aef07a6252faf0cb9b53b5282",
  "compiler": {
    "evm_version": "istanbul",
    "optimizer": {
      "enabled": true,
      "runs": 200
    },
    "version": "0.8.10+commit.fc410830"
  },
  "contractName": "TrainingPlans",
  "language": "Solidity",
  "natspec": {
    "details": "A contract that manages the training plans for the project. There is always only 1 plan running at a time. All the plans are stored on the blockchain",
    "kind": "dev",
    "methods": {
      "acceptNode(bool,bytes32,bytes32,bytes32)": {
        "notice": "Accepting first request in the stack",
        "params": {
          "parity": "header type",
          "secret0": "sharing encrypted common secret for nodes",
          "secret1": "sharing encrypted common secret for nodes",
          "secret2": "sharing encrypted common secret for nodes TODO: Secret should be updated as hash of previous secret So that the node doesn't have access to previous models TODO: Should not accept node when plan is running"
        }
      },
      "changeNodeStatus(bool)": {
        "notice": "Function node can become active/inactive "
      },
      "declineNode()": {
        "notice": "Declining first request in the stack"
      },
      "requestJoinNode(bool,bytes32)": {
        "notice": "Node can request to join providing their public key.",
        "params": {
          "parity": "based on header value (0x02/0x03 - false/true)",
          "publicKey": "compressed public key value"
        }
      },
      "setBuilderPublickey(bool,bytes32)": {
        "notice": "Builder can update his public key.",
        "params": {
          "parity": "based on header value (0x02/0x03 - false/true)",
          "publicKey": "compressed public key value"
        }
      }
    },
    "version": 1
  },
  "opcodes": "PUSH1 0x80 PUSH1 0x40 MSTORE CALLVALUE DUP1 ISZERO PUSH2 0x10 JUMPI PUSH1 0x0 DUP1 REVERT JUMPDEST POP PUSH1 0x4 CALLDATASIZE LT PUSH2 0x12C JUMPI PUSH1 0x0 CALLDATALOAD PUSH1 0xE0 SHR DUP1 PUSH4 0x8518A047 GT PUSH2 0xAD JUMPI DUP1 PUSH4 0xB777A893 GT PUSH2 0x71 JUMPI DUP1 PUSH4 0xB777A893 EQ PUSH2 0x2D6 JUMPI DUP1 PUSH4 0xBA7925CB EQ PUSH2 0x2DE JUMPI DUP1 PUSH4 0xC4E10A14 EQ PUSH2 0x2F6 JUMPI DUP1 PUSH4 0xDA0986AA EQ PUSH2 0x34E JUMPI DUP1 PUSH4 0xF1B7A129 EQ PUSH2 0x373 JUMPI PUSH1 0x0 DUP1 REVERT JUMPDEST DUP1 PUSH4 0x8518A047 EQ PUSH2 0x24D JUMPI DUP1 PUSH4 0x8A19C8BC EQ PUSH2 0x26D JUMPI DUP1 PUSH4 0xA0572B2A EQ PUSH2 0x286 JUMPI DUP1 PUSH4 0xB1620616 EQ PUSH2 0x299 JUMPI DUP1 PUSH4 0xB5967269 EQ PUSH2 0x2C6 JUMPI PUSH1 0x0 DUP1 REVERT JUMPDEST DUP1 PUSH4 0x38B15A03 GT PUSH2 0xF4 JUMPI DUP1 PUSH4 0x38B15A03 EQ PUSH2 0x1F7 JUMPI DUP1 PUSH4 0x4A653A4D EQ PUSH2 0x20C JUMPI DUP1 PUSH4 0x5AE12C73 EQ PUSH2 0x21F JUMPI DUP1 PUSH4 0x6F2690A5 EQ PUSH2 0x232 JUMPI DUP1 PUSH4 0x72AB489F EQ PUSH2 0x245 JUMPI PUSH1 0x0 DUP1 REVERT JUMPDEST DUP1 PUSH4 0x7F19651 EQ PUSH2 0x131 JUMPI DUP1 PUSH4 0x13029E03 EQ PUSH2 0x15B JUMPI DUP1 PUSH4 0x144DDEFC EQ PUSH2 0x16D JUMPI DUP1 PUSH4 0x1821AA62 EQ PUSH2 0x1CF JUMPI DUP1 PUSH4 0x31888D88 EQ PUSH2 0x1D7 JUMPI JUMPDEST PUSH1 0x0 DUP1 REVERT JUMPDEST PUSH1 0x3 SLOAD PUSH2 0x141 SWAP1 PUSH4 0xFFFFFFFF AND DUP2 JUMP JUMPDEST PUSH1 0x40 MLOAD PUSH4 0xFFFFFFFF SWAP1 SWAP2 AND DUP2 MSTORE PUSH1 0x20 ADD JUMPDEST PUSH1 0x40 MLOAD DUP1 SWAP2 SUB SWAP1 RETURN JUMPDEST PUSH1 0x4 SLOAD JUMPDEST PUSH1 0x40 MLOAD SWAP1 DUP2 MSTORE PUSH1 0x20 ADD PUSH2 0x152 JUMP JUMPDEST PUSH2 0x1AA PUSH2 0x17B CALLDATASIZE PUSH1 0x4 PUSH2 0x10DC JUMP JUMPDEST PUSH1 0x0 PUSH1 0x20 DUP2 SWAP1 MSTORE SWAP1 DUP2 MSTORE PUSH1 0x40 SWAP1 KECCAK256 DUP1 SLOAD PUSH1 0x1 SWAP1 SWAP2 ADD SLOAD PUSH1 0x1 PUSH1 0x1 PUSH1 0xA0 SHL SUB DUP3 AND SWAP2 PUSH1 0x1 PUSH1 0xA0 SHL SWAP1 DIV PUSH1 0xFF AND SWAP1 DUP4 JUMP JUMPDEST PUSH1 0x40 DUP1 MLOAD PUSH1 0x1 PUSH1 0x1 PUSH1 0xA0 SHL SUB SWAP1 SWAP5 AND DUP5 MSTORE SWAP2 ISZERO ISZERO PUSH1 0x20 DUP5 ADD MSTORE SWAP1 DUP3 ADD MSTORE PUSH1 0x60 ADD PUSH2 0x152 JUMP JUMPDEST PUSH1 0x2 SLOAD PUSH2 0x15F JUMP JUMPDEST PUSH2 0x1EA PUSH2 0x1E5 CALLDATASIZE PUSH1 0x4 PUSH2 0x10FE JUMP JUMPDEST PUSH2 0x386 JUMP JUMPDEST PUSH1 0x40 MLOAD PUSH2 0x152 SWAP2 SWAP1 PUSH2 0x1177 JUMP JUMPDEST PUSH2 0x20A PUSH2 0x205 CALLDATASIZE PUSH1 0x4 PUSH2 0x119A JUMP JUMPDEST PUSH2 0x4C9 JUMP JUMPDEST STOP JUMPDEST PUSH2 0x20A PUSH2 0x21A CALLDATASIZE PUSH1 0x4 PUSH2 0x11C4 JUMP JUMPDEST PUSH2 0x5E1 JUMP JUMPDEST PUSH2 0x20A PUSH2 0x22D CALLDATASIZE PUSH1 0x4 PUSH2 0x119A JUMP JUMPDEST PUSH2 0x880 JUMP JUMPDEST PUSH2 0x1AA PUSH2 0x240 CALLDATASIZE PUSH1 0x4 PUSH2 0x11FD JUMP JUMPDEST PUSH2 0x909 JUMP JUMPDEST PUSH2 0x20A PUSH2 0x94C JUMP JUMPDEST PUSH2 0x15F PUSH2 0x25B CALLDATASIZE PUSH1 0x4 PUSH2 0x10DC JUMP JUMPDEST PUSH1 0x1 PUSH1 0x20 MSTORE PUSH1 0x0 SWAP1 DUP2 MSTORE PUSH1 0x40 SWAP1 KECCAK256 SLOAD DUP2 JUMP JUMPDEST PUSH1 0x6 SLOAD PUSH2 0x141 SWAP1 PUSH6 0x10000000000 SWAP1 DIV PUSH4 0xFFFFFFFF AND DUP2 JUMP JUMPDEST PUSH2 0x20A PUSH2 0x294 CALLDATASIZE PUSH1 0x4 PUSH2 0x1216 JUMP JUMPDEST PUSH2 0xA54 JUMP JUMPDEST PUSH2 0x2AC PUSH2 0x2A7 CALLDATASIZE PUSH1 0x4 PUSH2 0x11FD JUMP JUMPDEST PUSH2 0xBF5 JUMP JUMPDEST PUSH1 0x40 MLOAD PUSH2 0x152 SWAP15 SWAP14 SWAP13 SWAP12 SWAP11 SWAP10 SWAP9 SWAP8 SWAP7 SWAP6 SWAP5 SWAP4 SWAP3 SWAP2 SWAP1 PUSH2 0x1231 JUMP JUMPDEST PUSH1 0x6 SLOAD PUSH2 0x141 SWAP1 PUSH4 0xFFFFFFFF AND DUP2 JUMP JUMPDEST PUSH2 0x20A PUSH2 0xD91 JUMP JUMPDEST PUSH1 0x3 SLOAD PUSH2 0x141 SWAP1 PUSH5 0x100000000 SWAP1 DIV PUSH4 0xFFFFFFFF AND DUP2 JUMP JUMPDEST PUSH2 0x309 PUSH2 0x304 CALLDATASIZE PUSH1 0x4 PUSH2 0x11FD JUMP JUMPDEST PUSH2 0xE3E JUMP JUMPDEST PUSH1 0x40 DUP1 MLOAD PUSH1 0x1 PUSH1 0x1 PUSH1 0xA0 SHL SUB SWAP1 SWAP9 AND DUP9 MSTORE SWAP6 ISZERO ISZERO PUSH1 0x20 DUP9 ADD MSTORE SWAP4 ISZERO ISZERO SWAP5 DUP7 ADD SWAP5 SWAP1 SWAP5 MSTORE PUSH1 0x60 DUP6 ADD SWAP2 SWAP1 SWAP2 MSTORE PUSH1 0x80 DUP5 ADD MSTORE PUSH1 0xA0 DUP4 ADD SWAP2 SWAP1 SWAP2 MSTORE PUSH1 0xC0 DUP3 ADD MSTORE PUSH1 0xE0 ADD PUSH2 0x152 JUMP JUMPDEST PUSH1 0x6 SLOAD PUSH2 0x363 SWAP1 PUSH5 0x100000000 SWAP1 DIV PUSH1 0xFF AND DUP2 JUMP JUMPDEST PUSH1 0x40 MLOAD SWAP1 ISZERO ISZERO DUP2 MSTORE PUSH1 0x20 ADD PUSH2 0x152 JUMP JUMPDEST PUSH2 0x20A PUSH2 0x381 CALLDATASIZE PUSH1 0x4 PUSH2 0x12F7 JUMP JUMPDEST PUSH2 0xE9B JUMP JUMPDEST PUSH1 0x6 SLOAD PUSH1 0x60 SWAP1 PUSH4 0xFFFFFFFF AND PUSH2 0x3E3 JUMPI PUSH1 0x40 MLOAD PUSH3 0x461BCD PUSH1 0xE5 SHL DUP2 MSTORE PUSH1 0x20 PUSH1 0x4 DUP3 ADD MSTORE PUSH1 0x19 PUSH1 0x24 DUP3 ADD MSTORE PUSH32 0x4E6F20747261696E696E6720706C616E73206372656174656400000000000000 PUSH1 0x44 DUP3 ADD MSTORE PUSH1 0x64 ADD JUMPDEST PUSH1 0x40 MLOAD DUP1 SWAP2 SUB SWAP1 REVERT JUMPDEST PUSH1 0x6 SLOAD PUSH1 0x5 SWAP1 PUSH1 0x0 SWAP1 PUSH2 0x3FE SWAP1 PUSH1 0x1 SWAP1 PUSH4 0xFFFFFFFF AND PUSH2 0x13EC JUMP JUMPDEST PUSH4 0xFFFFFFFF AND DUP2 MSTORE PUSH1 0x20 DUP1 DUP3 ADD SWAP3 SWAP1 SWAP3 MSTORE PUSH1 0x40 SWAP1 DUP2 ADD PUSH1 0x0 SWAP1 DUP2 KECCAK256 DUP7 DUP3 MSTORE PUSH1 0xD ADD DUP4 MSTORE DUP2 DUP2 KECCAK256 PUSH1 0x1 PUSH1 0x1 PUSH1 0xA0 SHL SUB DUP7 AND DUP3 MSTORE PUSH1 0x2 ADD SWAP1 SWAP3 MSTORE SWAP1 KECCAK256 DUP1 SLOAD PUSH2 0x443 SWAP1 PUSH2 0x1411 JUMP JUMPDEST DUP1 PUSH1 0x1F ADD PUSH1 0x20 DUP1 SWAP2 DIV MUL PUSH1 0x20 ADD PUSH1 0x40 MLOAD SWAP1 DUP2 ADD PUSH1 0x40 MSTORE DUP1 SWAP3 SWAP2 SWAP1 DUP2 DUP2 MSTORE PUSH1 0x20 ADD DUP3 DUP1 SLOAD PUSH2 0x46F SWAP1 PUSH2 0x1411 JUMP JUMPDEST DUP1 ISZERO PUSH2 0x4BC JUMPI DUP1 PUSH1 0x1F LT PUSH2 0x491 JUMPI PUSH2 0x100 DUP1 DUP4 SLOAD DIV MUL DUP4 MSTORE SWAP2 PUSH1 0x20 ADD SWAP2 PUSH2 0x4BC JUMP JUMPDEST DUP3 ADD SWAP2 SWAP1 PUSH1 0x0 MSTORE PUSH1 0x20 PUSH1 0x0 KECCAK256 SWAP1 JUMPDEST DUP2 SLOAD DUP2 MSTORE SWAP1 PUSH1 0x1 ADD SWAP1 PUSH1 0x20 ADD DUP1 DUP4 GT PUSH2 0x49F JUMPI DUP3 SWAP1 SUB PUSH1 0x1F AND DUP3 ADD SWAP2 JUMPDEST POP POP POP POP POP SWAP1 POP SWAP3 SWAP2 POP POP JUMP JUMPDEST CALLER PUSH1 0x0 SWAP1 DUP2 MSTORE PUSH1 0x1 PUSH1 0x20 MSTORE PUSH1 0x40 SWAP1 KECCAK256 SLOAD ISZERO PUSH2 0x526 JUMPI PUSH1 0x40 MLOAD PUSH3 0x461BCD PUSH1 0xE5 SHL DUP2 MSTORE PUSH1 0x20 PUSH1 0x4 DUP3 ADD MSTORE PUSH1 0x1D PUSH1 0x24 DUP3 ADD MSTORE PUSH32 0x4164647265737320616C7265616479206D61646520726571756573742E000000 PUSH1 0x44 DUP3 ADD MSTORE PUSH1 0x64 ADD PUSH2 0x3DA JUMP JUMPDEST CALLER PUSH1 0x0 DUP2 DUP2 MSTORE PUSH1 0x1 PUSH1 0x20 DUP2 DUP2 MSTORE PUSH1 0x40 DUP1 DUP5 KECCAK256 DUP4 SWAP1 SSTORE DUP1 MLOAD PUSH1 0x60 DUP2 ADD DUP3 MSTORE SWAP5 DUP6 MSTORE SWAP6 ISZERO ISZERO SWAP1 DUP5 ADD SWAP1 DUP2 MSTORE SWAP5 DUP4 ADD SWAP4 DUP5 MSTORE PUSH1 0x4 DUP1 SLOAD SWAP2 DUP3 ADD DUP2 SSTORE SWAP1 SWAP2 MSTORE SWAP1 MLOAD PUSH1 0x2 SWAP1 SWAP2 MUL PUSH32 0x8A35ACFBC15FF81A39AE7D344FD709F28E8600B4AA8C65C6B64BFE7FE36BD19B DUP2 ADD DUP1 SLOAD SWAP5 MLOAD ISZERO ISZERO PUSH1 0x1 PUSH1 0xA0 SHL MUL PUSH1 0x1 PUSH1 0x1 PUSH1 0xA8 SHL SUB NOT SWAP1 SWAP6 AND PUSH1 0x1 PUSH1 0x1 PUSH1 0xA0 SHL SUB SWAP4 SWAP1 SWAP4 AND SWAP3 SWAP1 SWAP3 OR SWAP4 SWAP1 SWAP4 OR SWAP1 SSTORE MLOAD PUSH32 0x8A35ACFBC15FF81A39AE7D344FD709F28E8600B4AA8C65C6B64BFE7FE36BD19C SWAP1 SWAP2 ADD SSTORE JUMP JUMPDEST CALLER PUSH1 0x0 SWAP1 DUP2 MSTORE PUSH1 0x1 PUSH1 0x20 MSTORE PUSH1 0x40 SWAP1 KECCAK256 SLOAD PUSH1 0x3 GT ISZERO PUSH2 0x611 JUMPI PUSH1 0x40 MLOAD PUSH3 0x461BCD PUSH1 0xE5 SHL DUP2 MSTORE PUSH1 0x4 ADD PUSH2 0x3DA SWAP1 PUSH2 0x144C JUMP JUMPDEST PUSH1 0x4 SLOAD PUSH2 0x659 JUMPI PUSH1 0x40 MLOAD PUSH3 0x461BCD PUSH1 0xE5 SHL DUP2 MSTORE PUSH1 0x20 PUSH1 0x4 DUP3 ADD MSTORE PUSH1 0x16 PUSH1 0x24 DUP3 ADD MSTORE PUSH22 0x2737903932B8BAB2B9BA103A3790383937B1B2B9B997 PUSH1 0x51 SHL PUSH1 0x44 DUP3 ADD MSTORE PUSH1 0x64 ADD PUSH2 0x3DA JUMP JUMPDEST PUSH1 0x2 SLOAD PUSH2 0x667 SWAP1 PUSH1 0x3 PUSH2 0x1493 JUMP JUMPDEST PUSH1 0x4 DUP1 SLOAD PUSH1 0x1 SWAP2 PUSH1 0x0 SWAP2 PUSH2 0x67C SWAP1 DUP5 SWAP1 PUSH2 0x14AB JUMP JUMPDEST DUP2 SLOAD DUP2 LT PUSH2 0x68C JUMPI PUSH2 0x68C PUSH2 0x14C2 JUMP JUMPDEST PUSH1 0x0 SWAP2 DUP3 MSTORE PUSH1 0x20 DUP1 DUP4 KECCAK256 PUSH1 0x2 SWAP1 SWAP3 MUL SWAP1 SWAP2 ADD SLOAD PUSH1 0x1 PUSH1 0x1 PUSH1 0xA0 SHL SUB AND DUP4 MSTORE DUP3 ADD SWAP3 SWAP1 SWAP3 MSTORE PUSH1 0x40 ADD SWAP1 KECCAK256 SSTORE PUSH1 0x3 DUP1 SLOAD PUSH1 0x1 SWAP2 SWAP1 PUSH1 0x4 SWAP1 PUSH2 0x6DB SWAP1 DUP5 SWAP1 PUSH4 0xFFFFFFFF PUSH5 0x100000000 SWAP1 SWAP2 DIV AND PUSH2 0x14D8 JUMP JUMPDEST SWAP3 POP PUSH2 0x100 EXP DUP2 SLOAD DUP2 PUSH4 0xFFFFFFFF MUL NOT AND SWAP1 DUP4 PUSH4 0xFFFFFFFF AND MUL OR SWAP1 SSTORE POP PUSH1 0x2 PUSH1 0x40 MLOAD DUP1 PUSH1 0xE0 ADD PUSH1 0x40 MSTORE DUP1 PUSH1 0x4 PUSH1 0x1 PUSH1 0x4 DUP1 SLOAD SWAP1 POP PUSH2 0x71A SWAP2 SWAP1 PUSH2 0x14AB JUMP JUMPDEST DUP2 SLOAD DUP2 LT PUSH2 0x72A JUMPI PUSH2 0x72A PUSH2 0x14C2 JUMP JUMPDEST PUSH1 0x0 SWAP2 DUP3 MSTORE PUSH1 0x20 DUP1 DUP4 KECCAK256 PUSH1 0x2 SWAP3 DUP4 MUL ADD SLOAD PUSH1 0x1 PUSH1 0x1 PUSH1 0xA0 SHL SUB SWAP1 DUP2 AND DUP6 MSTORE PUSH1 0x1 DUP6 DUP4 ADD DUP2 SWAP1 MSTORE DUP12 ISZERO ISZERO PUSH1 0x40 DUP1 DUP9 ADD SWAP2 SWAP1 SWAP2 MSTORE PUSH1 0x60 DUP1 DUP9 ADD DUP14 SWAP1 MSTORE PUSH1 0x80 DUP1 DUP10 ADD DUP14 SWAP1 MSTORE PUSH1 0xA0 DUP1 DUP11 ADD DUP14 SWAP1 MSTORE PUSH1 0x3 DUP1 SLOAD PUSH4 0xFFFFFFFF PUSH5 0x100000000 SWAP1 SWAP2 DIV DUP2 AND PUSH1 0xC0 SWAP13 DUP14 ADD MSTORE DUP14 SLOAD DUP1 DUP9 ADD DUP16 SSTORE SWAP14 DUP12 MSTORE DUP9 DUP12 KECCAK256 DUP14 MLOAD PUSH1 0x5 SWAP1 SWAP16 MUL ADD DUP1 SLOAD SWAP10 DUP15 ADD MLOAD SWAP7 DUP15 ADD MLOAD ISZERO ISZERO PUSH1 0x1 PUSH1 0xA8 SHL MUL PUSH1 0xFF PUSH1 0xA8 SHL NOT SWAP8 ISZERO ISZERO PUSH1 0x1 PUSH1 0xA0 SHL MUL PUSH1 0x1 PUSH1 0x1 PUSH1 0xA8 SHL SUB NOT SWAP1 SWAP12 AND SWAP16 SWAP1 SWAP10 AND SWAP15 SWAP1 SWAP15 OR SWAP9 SWAP1 SWAP9 OR SWAP5 SWAP1 SWAP5 AND SWAP6 SWAP1 SWAP6 OR DUP12 SSTORE SWAP1 DUP10 ADD MLOAD DUP11 DUP5 ADD SSTORE DUP9 ADD MLOAD SWAP5 DUP10 ADD SWAP5 SWAP1 SWAP5 SSTORE SWAP1 DUP7 ADD MLOAD DUP8 DUP5 ADD SSTORE SWAP5 SWAP1 SWAP4 ADD MLOAD PUSH1 0x4 SWAP6 SWAP1 SWAP6 ADD SWAP5 SWAP1 SWAP5 SSTORE DUP4 SLOAD SWAP3 SWAP4 SWAP3 SWAP1 SWAP2 PUSH2 0x822 SWAP2 DUP6 SWAP2 AND PUSH2 0x14D8 JUMP JUMPDEST SWAP3 POP PUSH2 0x100 EXP DUP2 SLOAD DUP2 PUSH4 0xFFFFFFFF MUL NOT AND SWAP1 DUP4 PUSH4 0xFFFFFFFF AND MUL OR SWAP1 SSTORE POP PUSH1 0x4 DUP1 SLOAD DUP1 PUSH2 0x851 JUMPI PUSH2 0x851 PUSH2 0x1500 JUMP JUMPDEST PUSH1 0x0 DUP3 DUP2 MSTORE PUSH1 0x20 DUP2 KECCAK256 PUSH1 0x2 PUSH1 0x0 NOT SWAP1 SWAP4 ADD SWAP3 DUP4 MUL ADD DUP1 SLOAD PUSH1 0x1 PUSH1 0x1 PUSH1 0xA8 SHL SUB NOT AND DUP2 SSTORE PUSH1 0x1 ADD SSTORE SWAP1 SSTORE POP POP POP POP JUMP JUMPDEST CALLER PUSH1 0x0 DUP2 DUP2 MSTORE PUSH1 0x20 DUP2 SWAP1 MSTORE PUSH1 0x40 SWAP1 KECCAK256 SLOAD PUSH1 0x1 PUSH1 0x1 PUSH1 0xA0 SHL SUB AND EQ PUSH2 0x8D8 JUMPI PUSH1 0x40 MLOAD PUSH3 0x461BCD PUSH1 0xE5 SHL DUP2 MSTORE PUSH1 0x20 PUSH1 0x4 DUP3 ADD MSTORE PUSH1 0xF PUSH1 0x24 DUP3 ADD MSTORE PUSH15 0x109D5A5B19195C881B9BDD081CD95D PUSH1 0x8A SHL PUSH1 0x44 DUP3 ADD MSTORE PUSH1 0x64 ADD PUSH2 0x3DA JUMP JUMPDEST CALLER PUSH1 0x0 SWAP1 DUP2 MSTORE PUSH1 0x20 DUP2 SWAP1 MSTORE PUSH1 0x40 SWAP1 KECCAK256 DUP1 SLOAD SWAP3 ISZERO ISZERO PUSH1 0x1 PUSH1 0xA0 SHL MUL PUSH1 0xFF PUSH1 0xA0 SHL NOT SWAP1 SWAP4 AND SWAP3 SWAP1 SWAP3 OR DUP3 SSTORE PUSH1 0x1 SWAP1 SWAP2 ADD SSTORE JUMP JUMPDEST PUSH1 0x4 DUP2 DUP2 SLOAD DUP2 LT PUSH2 0x919 JUMPI PUSH1 0x0 DUP1 REVERT JUMPDEST PUSH1 0x0 SWAP2 DUP3 MSTORE PUSH1 0x20 SWAP1 SWAP2 KECCAK256 PUSH1 0x2 SWAP1 SWAP2 MUL ADD DUP1 SLOAD PUSH1 0x1 SWAP1 SWAP2 ADD SLOAD PUSH1 0x1 PUSH1 0x1 PUSH1 0xA0 SHL SUB DUP3 AND SWAP3 POP PUSH1 0x1 PUSH1 0xA0 SHL SWAP1 SWAP2 DIV PUSH1 0xFF AND SWAP1 DUP4 JUMP JUMPDEST CALLER PUSH1 0x0 SWAP1 DUP2 MSTORE PUSH1 0x1 PUSH1 0x20 MSTORE PUSH1 0x40 SWAP1 KECCAK256 SLOAD PUSH1 0x3 GT ISZERO PUSH2 0x97C JUMPI PUSH1 0x40 MLOAD PUSH3 0x461BCD PUSH1 0xE5 SHL DUP2 MSTORE PUSH1 0x4 ADD PUSH2 0x3DA SWAP1 PUSH2 0x144C JUMP JUMPDEST PUSH1 0x4 SLOAD PUSH2 0x9C4 JUMPI PUSH1 0x40 MLOAD PUSH3 0x461BCD PUSH1 0xE5 SHL DUP2 MSTORE PUSH1 0x20 PUSH1 0x4 DUP3 ADD MSTORE PUSH1 0x16 PUSH1 0x24 DUP3 ADD MSTORE PUSH22 0x2737903932B8BAB2B9BA103A3790383937B1B2B9B997 PUSH1 0x51 SHL PUSH1 0x44 DUP3 ADD MSTORE PUSH1 0x64 ADD PUSH2 0x3DA JUMP JUMPDEST PUSH1 0x2 PUSH1 0x1 PUSH1 0x0 PUSH1 0x4 PUSH1 0x1 PUSH1 0x4 DUP1 SLOAD SWAP1 POP PUSH2 0x9DE SWAP2 SWAP1 PUSH2 0x14AB JUMP JUMPDEST DUP2 SLOAD DUP2 LT PUSH2 0x9EE JUMPI PUSH2 0x9EE PUSH2 0x14C2 JUMP JUMPDEST PUSH1 0x0 SWAP2 DUP3 MSTORE PUSH1 0x20 DUP1 DUP4 KECCAK256 PUSH1 0x2 SWAP1 SWAP3 MUL SWAP1 SWAP2 ADD SLOAD PUSH1 0x1 PUSH1 0x1 PUSH1 0xA0 SHL SUB AND DUP4 MSTORE DUP3 ADD SWAP3 SWAP1 SWAP3 MSTORE PUSH1 0x40 ADD SWAP1 KECCAK256 SSTORE PUSH1 0x4 DUP1 SLOAD DUP1 PUSH2 0xA29 JUMPI PUSH2 0xA29 PUSH2 0x1500 JUMP JUMPDEST PUSH1 0x0 DUP3 DUP2 MSTORE PUSH1 0x20 DUP2 KECCAK256 PUSH1 0x2 PUSH1 0x0 NOT SWAP1 SWAP4 ADD SWAP3 DUP4 MUL ADD DUP1 SLOAD PUSH1 0x1 PUSH1 0x1 PUSH1 0xA8 SHL SUB NOT AND DUP2 SSTORE PUSH1 0x1 ADD SSTORE SWAP1 SSTORE JUMP JUMPDEST CALLER PUSH1 0x0 SWAP1 DUP2 MSTORE PUSH1 0x1 PUSH1 0x20 MSTORE PUSH1 0x40 SWAP1 KECCAK256 SLOAD PUSH1 0x3 GT ISZERO PUSH2 0xA84 JUMPI PUSH1 0x40 MLOAD PUSH3 0x461BCD PUSH1 0xE5 SHL DUP2 MSTORE PUSH1 0x4 ADD PUSH2 0x3DA SWAP1 PUSH2 0x144C JUMP JUMPDEST PUSH1 0x6 SLOAD PUSH5 0x100000000 SWAP1 DIV PUSH1 0xFF AND ISZERO PUSH2 0xAF4 JUMPI PUSH1 0x40 MLOAD PUSH3 0x461BCD PUSH1 0xE5 SHL DUP2 MSTORE PUSH1 0x20 PUSH1 0x4 DUP3 ADD MSTORE PUSH1 0x2C PUSH1 0x24 DUP3 ADD MSTORE PUSH32 0x4E6F64652063616E2774206368616E676520737461747573207768696C652070 PUSH1 0x44 DUP3 ADD MSTORE PUSH12 0x3630B710393AB73734B73397 PUSH1 0xA1 SHL PUSH1 0x64 DUP3 ADD MSTORE PUSH1 0x84 ADD PUSH2 0x3DA JUMP JUMPDEST CALLER PUSH1 0x0 SWAP1 DUP2 MSTORE PUSH1 0x1 PUSH1 0x20 MSTORE PUSH1 0x40 SWAP1 KECCAK256 SLOAD DUP2 ISZERO ISZERO SWAP1 PUSH1 0x2 SWAP1 PUSH2 0xB17 SWAP1 PUSH1 0x3 SWAP1 PUSH2 0x14AB JUMP JUMPDEST DUP2 SLOAD DUP2 LT PUSH2 0xB27 JUMPI PUSH2 0xB27 PUSH2 0x14C2 JUMP JUMPDEST PUSH1 0x0 SWAP2 DUP3 MSTORE PUSH1 0x20 SWAP1 SWAP2 KECCAK256 PUSH1 0x5 SWAP1 SWAP2 MUL ADD SLOAD PUSH1 0x1 PUSH1 0xA0 SHL SWAP1 DIV PUSH1 0xFF AND ISZERO ISZERO EQ PUSH2 0xB97 JUMPI DUP1 PUSH2 0xB68 JUMPI PUSH1 0x3 SLOAD PUSH2 0xB63 SWAP1 PUSH1 0x1 SWAP1 PUSH4 0xFFFFFFFF AND PUSH2 0x13EC JUMP JUMPDEST PUSH2 0xB7C JUMP JUMPDEST PUSH1 0x3 SLOAD PUSH2 0xB7C SWAP1 PUSH4 0xFFFFFFFF AND PUSH1 0x1 PUSH2 0x14D8 JUMP JUMPDEST PUSH1 0x3 DUP1 SLOAD PUSH4 0xFFFFFFFF NOT AND PUSH4 0xFFFFFFFF SWAP3 SWAP1 SWAP3 AND SWAP2 SWAP1 SWAP2 OR SWAP1 SSTORE JUMPDEST CALLER PUSH1 0x0 SWAP1 DUP2 MSTORE PUSH1 0x1 PUSH1 0x20 MSTORE PUSH1 0x40 SWAP1 KECCAK256 SLOAD DUP2 SWAP1 PUSH1 0x2 SWAP1 PUSH2 0xBB8 SWAP1 PUSH1 0x3 SWAP1 PUSH2 0x14AB JUMP JUMPDEST DUP2 SLOAD DUP2 LT PUSH2 0xBC8 JUMPI PUSH2 0xBC8 PUSH2 0x14C2 JUMP JUMPDEST PUSH1 0x0 SWAP2 DUP3 MSTORE PUSH1 0x20 SWAP1 SWAP2 KECCAK256 PUSH1 0x5 SWAP1 SWAP2 MUL ADD DUP1 SLOAD SWAP2 ISZERO ISZERO PUSH1 0x1 PUSH1 0xA0 SHL MUL PUSH1 0xFF PUSH1 0xA0 SHL NOT SWAP1 SWAP3 AND SWAP2 SWAP1 SWAP2 OR SWAP1 SSTORE POP JUMP JUMPDEST PUSH1 0x5 PUSH1 0x20 MSTORE PUSH1 0x0 SWAP1 DUP2 MSTORE PUSH1 0x40 SWAP1 KECCAK256 DUP1 SLOAD PUSH1 0x1 DUP3 ADD SLOAD PUSH1 0x2 DUP4 ADD DUP1 SLOAD PUSH1 0x1 PUSH1 0x1 PUSH1 0xA0 SHL SUB SWAP4 DUP5 AND SWAP5 SWAP4 DUP4 AND SWAP4 PUSH1 0x1 PUSH1 0xA0 SHL SWAP1 SWAP4 DIV PUSH4 0xFFFFFFFF AND SWAP3 SWAP2 SWAP1 PUSH2 0xC3A SWAP1 PUSH2 0x1411 JUMP JUMPDEST DUP1 PUSH1 0x1F ADD PUSH1 0x20 DUP1 SWAP2 DIV MUL PUSH1 0x20 ADD PUSH1 0x40 MLOAD SWAP1 DUP2 ADD PUSH1 0x40 MSTORE DUP1 SWAP3 SWAP2 SWAP1 DUP2 DUP2 MSTORE PUSH1 0x20 ADD DUP3 DUP1 SLOAD PUSH2 0xC66 SWAP1 PUSH2 0x1411 JUMP JUMPDEST DUP1 ISZERO PUSH2 0xCB3 JUMPI DUP1 PUSH1 0x1F LT PUSH2 0xC88 JUMPI PUSH2 0x100 DUP1 DUP4 SLOAD DIV MUL DUP4 MSTORE SWAP2 PUSH1 0x20 ADD SWAP2 PUSH2 0xCB3 JUMP JUMPDEST DUP3 ADD SWAP2 SWAP1 PUSH1 0x0 MSTORE PUSH1 0x20 PUSH1 0x0 KECCAK256 SWAP1 JUMPDEST DUP2 SLOAD DUP2 MSTORE SWAP1 PUSH1 0x1 ADD SWAP1 PUSH1 0x20 ADD DUP1 DUP4 GT PUSH2 0xC96 JUMPI DUP3 SWAP1 SUB PUSH1 0x1F AND DUP3 ADD SWAP2 JUMPDEST POP POP POP POP POP SWAP1 DUP1 PUSH1 0x3 ADD DUP1 SLOAD PUSH2 0xCC8 SWAP1 PUSH2 0x1411 JUMP JUMPDEST DUP1 PUSH1 0x1F ADD PUSH1 0x20 DUP1 SWAP2 DIV MUL PUSH1 0x20 ADD PUSH1 0x40 MLOAD SWAP1 DUP2 ADD PUSH1 0x40 MSTORE DUP1 SWAP3 SWAP2 SWAP1 DUP2 DUP2 MSTORE PUSH1 0x20 ADD DUP3 DUP1 SLOAD PUSH2 0xCF4 SWAP1 PUSH2 0x1411 JUMP JUMPDEST DUP1 ISZERO PUSH2 0xD41 JUMPI DUP1 PUSH1 0x1F LT PUSH2 0xD16 JUMPI PUSH2 0x100 DUP1 DUP4 SLOAD DIV MUL DUP4 MSTORE SWAP2 PUSH1 0x20 ADD SWAP2 PUSH2 0xD41 JUMP JUMPDEST DUP3 ADD SWAP2 SWAP1 PUSH1 0x0 MSTORE PUSH1 0x20 PUSH1 0x0 KECCAK256 SWAP1 JUMPDEST DUP2 SLOAD DUP2 MSTORE SWAP1 PUSH1 0x1 ADD SWAP1 PUSH1 0x20 ADD DUP1 DUP4 GT PUSH2 0xD24 JUMPI DUP3 SWAP1 SUB PUSH1 0x1F AND DUP3 ADD SWAP2 JUMPDEST POP POP POP PUSH1 0x4 DUP5 ADD SLOAD PUSH1 0x5 DUP6 ADD SLOAD PUSH1 0x6 DUP7 ADD SLOAD PUSH1 0x7 DUP8 ADD SLOAD PUSH1 0x8 DUP9 ADD SLOAD PUSH1 0x9 DUP10 ADD SLOAD PUSH1 0xA DUP11 ADD SLOAD PUSH1 0xB DUP12 ADD SLOAD PUSH1 0xC SWAP1 SWAP12 ADD SLOAD SWAP10 SWAP11 PUSH1 0xFF SWAP1 SWAP8 AND SWAP10 SWAP6 SWAP9 POP SWAP4 SWAP7 POP SWAP2 SWAP5 PUSH4 0xFFFFFFFF SWAP1 SWAP2 AND SWAP4 SWAP2 SWAP3 SWAP2 DUP15 JUMP JUMPDEST PUSH1 0x6 SLOAD PUSH4 0xFFFFFFFF AND ISZERO DUP1 ISZERO SWAP1 PUSH2 0xDE2 JUMPI POP PUSH1 0x6 SLOAD CALLER SWAP1 PUSH1 0x5 SWAP1 PUSH1 0x0 SWAP1 PUSH2 0xDC0 SWAP1 PUSH1 0x1 SWAP1 PUSH4 0xFFFFFFFF AND PUSH2 0x13EC JUMP JUMPDEST PUSH4 0xFFFFFFFF AND DUP2 MSTORE PUSH1 0x20 DUP2 ADD SWAP2 SWAP1 SWAP2 MSTORE PUSH1 0x40 ADD PUSH1 0x0 KECCAK256 SLOAD PUSH1 0x1 PUSH1 0x1 PUSH1 0xA0 SHL SUB AND EQ JUMPDEST PUSH2 0xE2E JUMPI PUSH1 0x40 MLOAD PUSH3 0x461BCD PUSH1 0xE5 SHL DUP2 MSTORE PUSH1 0x20 PUSH1 0x4 DUP3 ADD MSTORE PUSH1 0x1F PUSH1 0x24 DUP3 ADD MSTORE PUSH32 0x4F6E6C792063726561746F722063616E2061626F72742074686520706C616E00 PUSH1 0x44 DUP3 ADD MSTORE PUSH1 0x64 ADD PUSH2 0x3DA JUMP JUMPDEST PUSH1 0x6 DUP1 SLOAD PUSH5 0xFF00000000 NOT AND SWAP1 SSTORE JUMP JUMPDEST PUSH1 0x2 DUP2 DUP2 SLOAD DUP2 LT PUSH2 0xE4E JUMPI PUSH1 0x0 DUP1 REVERT JUMPDEST PUSH1 0x0 SWAP2 DUP3 MSTORE PUSH1 0x20 SWAP1 SWAP2 KECCAK256 PUSH1 0x5 SWAP1 SWAP2 MUL ADD DUP1 SLOAD PUSH1 0x1 DUP3 ADD SLOAD PUSH1 0x2 DUP4 ADD SLOAD PUSH1 0x3 DUP5 ADD SLOAD PUSH1 0x4 SWAP1 SWAP5 ADD SLOAD PUSH1 0x1 PUSH1 0x1 PUSH1 0xA0 SHL SUB DUP5 AND SWAP6 POP PUSH1 0xFF PUSH1 0x1 PUSH1 0xA0 SHL DUP6 DIV DUP2 AND SWAP6 PUSH1 0x1 PUSH1 0xA8 SHL SWAP1 SWAP6 DIV AND SWAP4 SWAP1 DUP8 JUMP JUMPDEST CALLER PUSH1 0x0 SWAP1 DUP2 MSTORE PUSH1 0x1 PUSH1 0x20 MSTORE PUSH1 0x40 SWAP1 KECCAK256 SLOAD PUSH1 0x3 GT ISZERO PUSH2 0xECB JUMPI PUSH1 0x40 MLOAD PUSH3 0x461BCD PUSH1 0xE5 SHL DUP2 MSTORE PUSH1 0x4 ADD PUSH2 0x3DA SWAP1 PUSH2 0x144C JUMP JUMPDEST PUSH1 0x6 SLOAD PUSH1 0x0 SWAP1 PUSH1 0x5 SWAP1 DUP3 SWAP1 PUSH2 0xEE8 SWAP1 PUSH1 0x1 SWAP1 PUSH4 0xFFFFFFFF AND PUSH2 0x13EC JUMP JUMPDEST PUSH4 0xFFFFFFFF AND DUP2 MSTORE PUSH1 0x20 DUP2 ADD SWAP2 SWAP1 SWAP2 MSTORE PUSH1 0x40 ADD PUSH1 0x0 KECCAK256 PUSH1 0x1 DUP2 ADD SLOAD SWAP1 SWAP2 POP PUSH1 0x1 PUSH1 0x1 PUSH1 0xA0 SHL SUB AND CALLER EQ PUSH2 0xF6C JUMPI PUSH1 0x40 MLOAD PUSH3 0x461BCD PUSH1 0xE5 SHL DUP2 MSTORE PUSH1 0x20 PUSH1 0x4 DUP3 ADD MSTORE PUSH1 0x26 PUSH1 0x24 DUP3 ADD MSTORE PUSH32 0x4F6E6C79207072652D73656C6563746564206E6F64652063616E2066696E6973 PUSH1 0x44 DUP3 ADD MSTORE PUSH6 0x3410383630B7 PUSH1 0xD1 SHL PUSH1 0x64 DUP3 ADD MSTORE PUSH1 0x84 ADD PUSH2 0x3DA JUMP JUMPDEST PUSH1 0x8 DUP2 ADD SLOAD PUSH1 0x6 SLOAD PUSH4 0xFFFFFFFF SWAP2 DUP3 AND PUSH6 0x10000000000 SWAP1 SWAP2 DIV SWAP1 SWAP2 AND LT ISZERO PUSH2 0xFD7 JUMPI PUSH1 0x40 MLOAD PUSH3 0x461BCD PUSH1 0xE5 SHL DUP2 MSTORE PUSH1 0x20 PUSH1 0x4 DUP3 ADD MSTORE PUSH1 0x1C PUSH1 0x24 DUP3 ADD MSTORE PUSH32 0x416C6C20726F756E6473206D75737420626520636F6D706C6574656400000000 PUSH1 0x44 DUP3 ADD MSTORE PUSH1 0x64 ADD PUSH2 0x3DA JUMP JUMPDEST DUP2 MLOAD PUSH2 0xFEC SWAP1 PUSH1 0x3 DUP4 ADD SWAP1 PUSH1 0x20 DUP6 ADD SWAP1 PUSH2 0x1027 JUMP JUMPDEST POP PUSH1 0x4 DUP2 ADD DUP1 SLOAD PUSH1 0xFF NOT AND SWAP7 ISZERO ISZERO SWAP7 SWAP1 SWAP7 OR SWAP1 SWAP6 SSTORE POP PUSH1 0x5 DUP5 ADD SWAP3 SWAP1 SWAP3 SSTORE PUSH1 0x6 DUP1 DUP5 ADD SWAP2 SWAP1 SWAP2 SSTORE PUSH1 0x7 SWAP1 SWAP3 ADD SSTORE DUP1 SLOAD PUSH5 0xFF00000000 NOT AND SWAP1 SSTORE JUMP JUMPDEST DUP3 DUP1 SLOAD PUSH2 0x1033 SWAP1 PUSH2 0x1411 JUMP JUMPDEST SWAP1 PUSH1 0x0 MSTORE PUSH1 0x20 PUSH1 0x0 KECCAK256 SWAP1 PUSH1 0x1F ADD PUSH1 0x20 SWAP1 DIV DUP2 ADD SWAP3 DUP3 PUSH2 0x1055 JUMPI PUSH1 0x0 DUP6 SSTORE PUSH2 0x109B JUMP JUMPDEST DUP3 PUSH1 0x1F LT PUSH2 0x106E JUMPI DUP1 MLOAD PUSH1 0xFF NOT AND DUP4 DUP1 ADD OR DUP6 SSTORE PUSH2 0x109B JUMP JUMPDEST DUP3 DUP1 ADD PUSH1 0x1 ADD DUP6 SSTORE DUP3 ISZERO PUSH2 0x109B JUMPI SWAP2 DUP3 ADD JUMPDEST DUP3 DUP2 GT ISZERO PUSH2 0x109B JUMPI DUP3 MLOAD DUP3 SSTORE SWAP2 PUSH1 0x20 ADD SWAP2 SWAP1 PUSH1 0x1 ADD SWAP1 PUSH2 0x1080 JUMP JUMPDEST POP PUSH2 0x10A7 SWAP3 SWAP2 POP PUSH2 0x10AB JUMP JUMPDEST POP SWAP1 JUMP JUMPDEST JUMPDEST DUP1 DUP3 GT ISZERO PUSH2 0x10A7 JUMPI PUSH1 0x0 DUP2 SSTORE PUSH1 0x1 ADD PUSH2 0x10AC JUMP JUMPDEST DUP1 CALLDATALOAD PUSH1 0x1 PUSH1 0x1 PUSH1 0xA0 SHL SUB DUP2 AND DUP2 EQ PUSH2 0x10D7 JUMPI PUSH1 0x0 DUP1 REVERT JUMPDEST SWAP2 SWAP1 POP JUMP JUMPDEST PUSH1 0x0 PUSH1 0x20 DUP3 DUP5 SUB SLT ISZERO PUSH2 0x10EE JUMPI PUSH1 0x0 DUP1 REVERT JUMPDEST PUSH2 0x10F7 DUP3 PUSH2 0x10C0 JUMP JUMPDEST SWAP4 SWAP3 POP POP POP JUMP JUMPDEST PUSH1 0x0 DUP1 PUSH1 0x40 DUP4 DUP6 SUB SLT ISZERO PUSH2 0x1111 JUMPI PUSH1 0x0 DUP1 REVERT JUMPDEST DUP3 CALLDATALOAD SWAP2 POP PUSH2 0x1121 PUSH1 0x20 DUP5 ADD PUSH2 0x10C0 JUMP JUMPDEST SWAP1 POP SWAP3 POP SWAP3 SWAP1 POP JUMP JUMPDEST PUSH1 0x0 DUP2 MLOAD DUP1 DUP5 MSTORE PUSH1 0x0 JUMPDEST DUP2 DUP2 LT ISZERO PUSH2 0x1150 JUMPI PUSH1 0x20 DUP2 DUP6 ADD DUP2 ADD MLOAD DUP7 DUP4 ADD DUP3 ADD MSTORE ADD PUSH2 0x1134 JUMP JUMPDEST DUP2 DUP2 GT ISZERO PUSH2 0x1162 JUMPI PUSH1 0x0 PUSH1 0x20 DUP4 DUP8 ADD ADD MSTORE JUMPDEST POP PUSH1 0x1F ADD PUSH1 0x1F NOT AND SWAP3 SWAP1 SWAP3 ADD PUSH1 0x20 ADD SWAP3 SWAP2 POP POP JUMP JUMPDEST PUSH1 0x20 DUP2 MSTORE PUSH1 0x0 PUSH2 0x10F7 PUSH1 0x20 DUP4 ADD DUP5 PUSH2 0x112A JUMP JUMPDEST DUP1 CALLDATALOAD DUP1 ISZERO ISZERO DUP2 EQ PUSH2 0x10D7 JUMPI PUSH1 0x0 DUP1 REVERT JUMPDEST PUSH1 0x0 DUP1 PUSH1 0x40 DUP4 DUP6 SUB SLT ISZERO PUSH2 0x11AD JUMPI PUSH1 0x0 DUP1 REVERT JUMPDEST PUSH2 0x11B6 DUP4 PUSH2 0x118A JUMP JUMPDEST SWAP5 PUSH1 0x20 SWAP4 SWAP1 SWAP4 ADD CALLDATALOAD SWAP4 POP POP POP JUMP JUMPDEST PUSH1 0x0 DUP1 PUSH1 0x0 DUP1 PUSH1 0x80 DUP6 DUP8 SUB SLT ISZERO PUSH2 0x11DA JUMPI PUSH1 0x0 DUP1 REVERT JUMPDEST PUSH2 0x11E3 DUP6 PUSH2 0x118A JUMP JUMPDEST SWAP7 PUSH1 0x20 DUP7 ADD CALLDATALOAD SWAP7 POP PUSH1 0x40 DUP7 ADD CALLDATALOAD SWAP6 PUSH1 0x60 ADD CALLDATALOAD SWAP5 POP SWAP3 POP POP POP JUMP JUMPDEST PUSH1 0x0 PUSH1 0x20 DUP3 DUP5 SUB SLT ISZERO PUSH2 0x120F JUMPI PUSH1 0x0 DUP1 REVERT JUMPDEST POP CALLDATALOAD SWAP2 SWAP1 POP JUMP JUMPDEST PUSH1 0x0 PUSH1 0x20 DUP3 DUP5 SUB SLT ISZERO PUSH2 0x1228 JUMPI PUSH1 0x0 DUP1 REVERT JUMPDEST PUSH2 0x10F7 DUP3 PUSH2 0x118A JUMP JUMPDEST PUSH1 0x1 PUSH1 0x1 PUSH1 0xA0 SHL SUB DUP16 DUP2 AND DUP3 MSTORE DUP15 AND PUSH1 0x20 DUP3 ADD MSTORE PUSH4 0xFFFFFFFF DUP14 AND PUSH1 0x40 DUP3 ADD MSTORE PUSH2 0x1C0 PUSH1 0x60 DUP3 ADD MSTORE PUSH1 0x0 PUSH2 0x1269 PUSH2 0x1C0 DUP4 ADD DUP15 PUSH2 0x112A JUMP JUMPDEST DUP3 DUP2 SUB PUSH1 0x80 DUP5 ADD MSTORE PUSH2 0x127B DUP2 DUP15 PUSH2 0x112A JUMP JUMPDEST SWAP2 POP POP PUSH2 0x128C PUSH1 0xA0 DUP4 ADD DUP13 ISZERO ISZERO SWAP1 MSTORE JUMP JUMPDEST DUP10 PUSH1 0xC0 DUP4 ADD MSTORE DUP9 PUSH1 0xE0 DUP4 ADD MSTORE DUP8 PUSH2 0x100 DUP4 ADD MSTORE PUSH2 0x12B2 PUSH2 0x120 DUP4 ADD DUP9 PUSH4 0xFFFFFFFF AND SWAP1 MSTORE JUMP JUMPDEST DUP6 PUSH2 0x140 DUP4 ADD MSTORE DUP5 PUSH2 0x160 DUP4 ADD MSTORE DUP4 PUSH2 0x180 DUP4 ADD MSTORE DUP3 PUSH2 0x1A0 DUP4 ADD MSTORE SWAP16 SWAP15 POP POP POP POP POP POP POP POP POP POP POP POP POP POP POP JUMP JUMPDEST PUSH4 0x4E487B71 PUSH1 0xE0 SHL PUSH1 0x0 MSTORE PUSH1 0x41 PUSH1 0x4 MSTORE PUSH1 0x24 PUSH1 0x0 REVERT JUMPDEST PUSH1 0x0 DUP1 PUSH1 0x0 DUP1 PUSH1 0x0 PUSH1 0xA0 DUP7 DUP9 SUB SLT ISZERO PUSH2 0x130F JUMPI PUSH1 0x0 DUP1 REVERT JUMPDEST PUSH2 0x1318 DUP7 PUSH2 0x118A JUMP JUMPDEST SWAP5 POP PUSH1 0x20 DUP7 ADD CALLDATALOAD SWAP4 POP PUSH1 0x40 DUP7 ADD CALLDATALOAD SWAP3 POP PUSH1 0x60 DUP7 ADD CALLDATALOAD SWAP2 POP PUSH1 0x80 DUP7 ADD CALLDATALOAD PUSH8 0xFFFFFFFFFFFFFFFF DUP1 DUP3 GT ISZERO PUSH2 0x134A JUMPI PUSH1 0x0 DUP1 REVERT JUMPDEST DUP2 DUP9 ADD SWAP2 POP DUP9 PUSH1 0x1F DUP4 ADD SLT PUSH2 0x135E JUMPI PUSH1 0x0 DUP1 REVERT JUMPDEST DUP2 CALLDATALOAD DUP2 DUP2 GT ISZERO PUSH2 0x1370 JUMPI PUSH2 0x1370 PUSH2 0x12E1 JUMP JUMPDEST PUSH1 0x40 MLOAD PUSH1 0x1F DUP3 ADD PUSH1 0x1F NOT SWAP1 DUP2 AND PUSH1 0x3F ADD AND DUP2 ADD SWAP1 DUP4 DUP3 GT DUP2 DUP4 LT OR ISZERO PUSH2 0x1398 JUMPI PUSH2 0x1398 PUSH2 0x12E1 JUMP JUMPDEST DUP2 PUSH1 0x40 MSTORE DUP3 DUP2 MSTORE DUP12 PUSH1 0x20 DUP5 DUP8 ADD ADD GT ISZERO PUSH2 0x13B1 JUMPI PUSH1 0x0 DUP1 REVERT JUMPDEST DUP3 PUSH1 0x20 DUP7 ADD PUSH1 0x20 DUP4 ADD CALLDATACOPY PUSH1 0x0 PUSH1 0x20 DUP5 DUP4 ADD ADD MSTORE DUP1 SWAP6 POP POP POP POP POP POP SWAP3 SWAP6 POP SWAP3 SWAP6 SWAP1 SWAP4 POP JUMP JUMPDEST PUSH4 0x4E487B71 PUSH1 0xE0 SHL PUSH1 0x0 MSTORE PUSH1 0x11 PUSH1 0x4 MSTORE PUSH1 0x24 PUSH1 0x0 REVERT JUMPDEST PUSH1 0x0 PUSH4 0xFFFFFFFF DUP4 DUP2 AND SWAP1 DUP4 AND DUP2 DUP2 LT ISZERO PUSH2 0x1409 JUMPI PUSH2 0x1409 PUSH2 0x13D6 JUMP JUMPDEST SUB SWAP4 SWAP3 POP POP POP JUMP JUMPDEST PUSH1 0x1 DUP2 DUP2 SHR SWAP1 DUP3 AND DUP1 PUSH2 0x1425 JUMPI PUSH1 0x7F DUP3 AND SWAP2 POP JUMPDEST PUSH1 0x20 DUP3 LT DUP2 EQ ISZERO PUSH2 0x1446 JUMPI PUSH4 0x4E487B71 PUSH1 0xE0 SHL PUSH1 0x0 MSTORE PUSH1 0x22 PUSH1 0x4 MSTORE PUSH1 0x24 PUSH1 0x0 REVERT JUMPDEST POP SWAP2 SWAP1 POP JUMP JUMPDEST PUSH1 0x20 DUP1 DUP3 MSTORE PUSH1 0x27 SWAP1 DUP3 ADD MSTORE PUSH32 0x4F6E6C79206E6F6465732061726520616C6C6F77656420746F20657865637574 PUSH1 0x40 DUP3 ADD MSTORE PUSH7 0x32903A3434B997 PUSH1 0xC9 SHL PUSH1 0x60 DUP3 ADD MSTORE PUSH1 0x80 ADD SWAP1 JUMP JUMPDEST PUSH1 0x0 DUP3 NOT DUP3 GT ISZERO PUSH2 0x14A6 JUMPI PUSH2 0x14A6 PUSH2 0x13D6 JUMP JUMPDEST POP ADD SWAP1 JUMP JUMPDEST PUSH1 0x0 DUP3 DUP3 LT ISZERO PUSH2 0x14BD JUMPI PUSH2 0x14BD PUSH2 0x13D6 JUMP JUMPDEST POP SUB SWAP1 JUMP JUMPDEST PUSH4 0x4E487B71 PUSH1 0xE0 SHL PUSH1 0x0 MSTORE PUSH1 0x32 PUSH1 0x4 MSTORE PUSH1 0x24 PUSH1 0x0 REVERT JUMPDEST PUSH1 0x0 PUSH4 0xFFFFFFFF DUP1 DUP4 AND DUP2 DUP6 AND DUP1 DUP4 SUB DUP3 GT ISZERO PUSH2 0x14F7 JUMPI PUSH2 0x14F7 PUSH2 0x13D6 JUMP JUMPDEST ADD SWAP5 SWAP4 POP POP POP POP JUMP JUMPDEST PUSH4 0x4E487B71 PUSH1 0xE0 SHL PUSH1 0x0 MSTORE PUSH1 0x31 PUSH1 0x4 MSTORE PUSH1 0x24 PUSH1 0x0 REVERT INVALID LOG2 PUSH5 0x6970667358 0x22 SLT KECCAK256 0xC3 0xEF 0xDF MSTORE8 0xF 0xCC 0xCD 0xE8 0xCB 0xAC JUMPI SWAP12 0xDA GASLIMIT CODECOPY PUSH27 0x5AC6C2971D153EA46A76D8047B59881964736F6C634300080A0033 ",
  "sha1": "52b8b972c0e2e06de8f319d8c18c09269c7b3a18",
  "source": "// SPDX-License-Identifier: GPL3\npragma solidity ^0.8.0;\n\nimport \"./Builders.sol\";\nimport \"./DataProviders.sol\";\n\n/**\n * @dev A contract that manages the training plans for the project.\n * There is always only 1 plan running at a time. All the plans are\n * stored on the blockchain\n */\ncontract TrainingPlans is Builders, DataProviders {\n    // Training Plan Round\n    struct Round {\n        bool completed;\n        uint numSubmitted;\n        mapping(address => string) modelsCID;\n    }\n\n    // Training Plan defines instructions for training clients (data providers)\n    struct TrainingPlan {\n        // bytes data;\n        address creator;\n        address finalNode;\n        uint32 randomSeed;\n\n        // Base model uploaded by builder\n        string baseModelCID;\n        // Final model uploaded by finalNode\n        string finalModelCID;\n\n        // Secret for sharing with builder\n        // TODO: maybe change to single array of 97 bytes\n        bool parity;\n        bytes32 secret0;\n        bytes32 secret1;\n        bytes32 secret2;\n\n        // Training params\n        uint32 numRounds;\n\n        // Number of nodes and rewards in training\n        uint numNodes;\n        uint totalReward;\n        uint nodeReward;\n\n        uint keyTurn;\n\n        // mapping (acting as array) of rounds\n        mapping(uint => Round) rounds;\n    }\n\n    mapping(uint => TrainingPlan) public plans;\n    uint32 public numPlans = 0;\n\n    bool public isPlanRunning = false;\n    uint32 public currentRound = 0;\n\n    // seed for pseudo random number generator\n    uint256 private _seed = 7;\n\n\n    function _calculateTotalReward(uint32 _rounds, uint _reward) internal view returns (uint) {\n        return uint(_rounds) * _reward * activeNodes;\n    }\n\n    // TODO: Add Chainlink Keeper to close round if time elapses\n    function _saveModel(string memory modelCID) internal onlyNode {\n        require(\n            currentRound < plans[numPlans - 1].numRounds,\n            \"No more rounds to perform.\"\n        );\n\n        Round storage round = plans[numPlans - 1].rounds[currentRound];\n        require(\n            bytes(round.modelsCID[msg.sender]).length == 0,\n            \"Model already sent for this round\"\n        );\n\n        // Store model CID and finish in case it is last\n        round.modelsCID[msg.sender] = modelCID;\n        round.numSubmitted += 1;\n        if (round.numSubmitted >= activeNodes) {\n            round.completed = true;\n            currentRound += 1;\n        }\n    }\n\n    function getRoundModel(uint roundIdx, address nodeAddress) public view returns(string memory) {\n        require(numPlans > 0, \"No training plans created\");\n        return plans[numPlans - 1].rounds[roundIdx].modelsCID[nodeAddress];\n    }\n\n    function _addPlan(string memory modelCID, uint32 rounds, uint reward) internal onlyBuilder {\n        require(!isPlanRunning, \"Another plan is already being executed\");\n        require(activeNodes > 0, \"No active nodes to execute the plan\");\n\n        TrainingPlan storage plan = plans[numPlans++];\n        plan.creator = msg.sender;\n        plan.baseModelCID = modelCID;\n        plan.numRounds = rounds;\n        plan.numNodes = activeNodes;\n        plan.nodeReward = reward;\n        plan.totalReward = _calculateTotalReward(rounds, reward);\n        plan.keyTurn = keyTurn;\n\n        uint256 randNum = _getRandomNumber();\n\n        // TODO: Deal better with inactive nodes so it is more fair\n        uint256 i = randNum % nodesArray.length;\n        for (; !nodesArray[i % nodesArray.length].activated; ++i) {}\n\n        plan.finalNode = nodesArray[i % nodesArray.length]._address;\n        plan.randomSeed = uint32(randNum);\n\n        currentRound = 0;\n        isPlanRunning = true;\n    }\n\n    // Abort plan\n    function abortPlan() public {\n        require(\n            numPlans > 0 && plans[numPlans - 1].creator == msg.sender,\n            \"Only creator can abort the plan\"\n        );\n        isPlanRunning = false;\n    }\n\n    // Finish plan\n    // IMPORTANT: Use combination of seed and secret to generate builder secret\n    // TODO add verification by other nodes\n    function finishPlan(\n        bool parity,\n        bytes32 secret0,\n        bytes32 secret1,\n        bytes32 secret2,\n        string memory modelCID\n    ) public onlyNode {\n        TrainingPlan storage plan = plans[numPlans - 1];\n        require(plan.finalNode == msg.sender, \"Only pre-selected node can finish plan\");\n        require(currentRound >= plan.numRounds, \"All rounds must be completed\");\n\n        plan.finalModelCID = modelCID;\n\n        plan.parity = parity;\n        plan.secret0 = secret0;\n        plan.secret1 = secret1;\n        plan.secret2 = secret2;\n\n        isPlanRunning = false;\n    }\n\n\n    /** Function node can become active/inactive */\n    function changeNodeStatus(bool status) public onlyNode {\n        require(!isPlanRunning, \"Node can't change status while plan running.\");\n        if (nodesArray[nodeState[msg.sender] - 3].activated != status) {\n            activeNodes = (status) ? activeNodes + 1 : activeNodes - 1;\n        }\n        nodesArray[nodeState[msg.sender] - 3].activated = status;\n    }\n\n    // get pseudo random number\n    function _getRandomNumber() private returns (uint256) {\n        _seed = uint256(keccak256(abi.encodePacked(_seed, blockhash(block.number - 1), block.coinbase, block.difficulty)));\n        return _seed;\n    }\n}\n",
  "sourcePath": "contracts/project/TrainingPlans.sol",
  "type": "contract"
}